:100000000C946C030C9494030C9494030C9494033C
:100010000C9494030C9494030C9494030C94940304
:100020000C9494030C943D050C941D1C0C94AC1A78
:100030000C9494030C9494030C9494030C949403E4
:100040000C9494030C9494030C9494030C949403D4
:100050000C9494030C9494030C9494030C94B11397
:100060000C9494030C948C170C94BE170C9494036A
:100070000C9494030C9494030C9494030C949403A4
:100080000C9494030C9494030C9494030C94940394
:100090000C945A080C9494030C9494030C949403B9
:1000A0000C9494030C9494030C949403CA14CD14EC
:1000B000BC14C014C614EE14EE14EE14D114D514EE
:1000C000D914DF14E314EE14E91400000000003E1C
:1000D0005B4F5B3E3E6B4F6B3E1C3E7C3E1C183CB8
:1000E0007E3C181C577D571C1C5E7F5E1C00183C14
:1000F0001800FFE7C3E7FF0018241800FFE7DBE75D
:10010000FF30483A060E2629792926407F05050743
:10011000407F05253F5A3CE73C5A7F3E1C1C08089F
:100120001C1C3E7F14227F22145F5F005F5F060964
:100130007F017F006689956A606060606094A2FFBD
:10014000A29408047E040810207E201008082A1CAF
:1001500008081C2A08081E101010100C1E0C1E0C7B
:1001600030383E3830060E3E0E060000000000001B
:10017000005F00000007000700147F147F14242A8A
:100180007F2A12231308646236495620500008075C
:100190000300001C2241000041221C002A1C7F1C7D
:1001A0002A08083E0808008070300008080808087F
:1001B000000060600020100804023E5149453E00E6
:1001C000427F400072494949462141494D33181444
:1001D000127F1027454545393C4A49493141211193
:1001E00009073649494936464949291E0000140085
:1001F00000004034000000081422411414141414A8
:10020000004122140802015909063E415D594E7C05
:100210001211127C7F494949363E414141227F41BA
:1002200041413E7F494949417F090909013E414118
:1002300051737F0808087F00417F41002040413F03
:10024000017F081422417F404040407F021C027F12
:100250007F0408107F3E4141413E7F090909063E67
:100260004151215E7F091929462649494932030136
:100270007F01033F4040403F1F2040201F3F403848
:10028000403F631408146303047804036159494D23
:1002900043007F4141410204081020004141417F59
:1002A00004020102044040404040000307080020CF
:1002B000545478407F2844443838444444283844CF
:1002C00044287F385454541800087E090218A4A406
:1002D0009C787F0804047800447D40002040403D25
:1002E000007F1028440000417F40007C047804789F
:1002F0007C080404783844444438FC182424181832
:10030000242418FC7C08040408485454542404048D
:100310003F44243C4040207C1C2040201C3C40307A
:10032000403C44281028444C9090907C4464544CA9
:100330004400083641000000770000004136080004
:1003400002010204023C2623263C1EA1A161123AAE
:100350004040207A385454555921555579412254FA
:10036000547842215554784020545579400C1E52FF
:1003700072123955555559395454545939555454A4
:10038000580000457C410002457D420001457C400B
:100390007D1211127DF0282528F07C54554500204F
:1003A00054547C547C0A097F4932494949323A44C1
:1003B00044443A324A4848303A4141217A3A42402C
:1003C0002078009DA0A07D3D4242423D3D404040FE
:1003D0003D3C24FF2424487E4943662B2FFC2F2BD1
:1003E000FF0929F620C0887E090320545479410072
:1003F00000447D413048484A32384040227A007AF1
:100400000A0A727D0D19317D2629292F28262929CE
:10041000292630484D4020380808080808080808F0
:10042000382F10C8ACBA2F102834FA00007B000017
:1004300008142A142222142A14085500550055AA1B
:1004400055AA55AAFF55FF55FF000000FF001010E8
:1004500010FF00141414FF001010FF00FF1010F024
:1004600010F0141414FC001414F700FF0000FF0037
:10047000FF1414F404FC141417101F10101F101F85
:100480001414141F00101010F0000000001F1010B2
:1004900010101F10101010F010000000FF101010AE
:1004A000101010101010FF10000000FF140000FFCB
:1004B00000FF00001F10170000FC04F414141710B4
:1004C000171414F404F40000FF00F71414141414A7
:1004D0001414F700F7141414171410101F101F141D
:1004E0001414F4141010F010F000001F101F00007E
:1004F000001F14000000FC140000F010F01010FFAA
:1005000010FF141414FF141010101F00000000F04E
:1005100010FFFFFFFFFFF0F0F0F0F0FFFFFF000023
:10052000000000FFFF0F0F0F0F0F3844443844FC4A
:100530004A4A4A347E02020606027E027E02635561
:100540004941633844443C04407E201E2006027E1C
:10055000020299A5E7A5991C2A492A1C4C7201722E
:100560004C304A4D4D303048784830BC625A463D98
:100570003E494949007E0101017E2A2A2A2A2A444D
:10058000445F444440514A444040444A5140000082
:10059000FF0103E080FF000008086B6B083612368D
:1005A0002436060F090F060000181800000010106E
:1005B000003040FF0101001F01011E00191D17122C
:1005C000003C3C3C3C000000000000000002000930
:1005D0000F0000030401000C000004080201104099
:1005E0008040102040804080080402010102102059
:1005F00040801080102040400404040404030405DB
:1006000002020202040302020202060606060606AF
:100610000404020202040000000023002600290056
:100620002C002F0000000000250028002B002E00C9
:10063000310000000000240027002A002D003000B7
:10064000080B00020202010009040000010202007E
:1006500000052400100105240101010424020605FF
:10066000240600010705810310004009040100026F
:100670000A0000000705020240000007058302404F
:10068000000012010002EF0201408D0E01AB0001DB
:100690000102030112010002000000408D0E01ABB7
:1006A0000001010203014D6564696154656B204CD2
:1006B000616273004C696E6B497420536D61727492
:1006C00020373638382044756F0004030904960338
:1006D000AA075116EE17A20311241FBECFEFDAE0CE
:1006E000DEBFCDBF15E0A0E0B1E0E8EDFBE302C066
:1006F00005900D92A63DB107D9F728E0A6EDB5E02B
:1007000001C01D92A933B207E1F713E0CBE6D3E0B5
:1007100004C02197FE010E94C01DC736D107C9F74A
:100720000E94BE1C0C94DF1D0C9400006DE085EF50
:1007300095E00E94321120E047E068E086ED95E008
:100740000C94100686ED95E00C94B705EF92FF929D
:100750000F931F9340E05BE460E070E084E397E078
:100760000E944B1626E040E05BE460E070E085E824
:1007700097E00E942C1740E855E260E070E086EDBB
:1007800095E00E943B0669E275E084E397E00E94F1
:100790005F1821E04CE362E085EF95E00E94C5110F
:1007A00085EF95E00E944B1162E085EF95E00E9495
:1007B000AA0D41E050E060E070E085EF95E00E9416
:1007C000B60D41E050E060E070E085EF95E00E94FA
:1007D000A40DEE24E394F12C01E110E020E830E0D8
:1007E00040E050E060E070E085EF95E00E94AD0AE7
:1007F00068E375E085EF95E00E945F1861E070E0C6
:1008000085EF95E00E94B00D63E475E085EF95E01B
:100810000E945F1862E085EF95E00E94AA0D6BE4EC
:1008200075E085EF95E00E945F1863E575E085EF60
:1008300095E00E945F1885EF95E00E94FA1260ED46
:1008400077E080E090E01F910F91FF90EF900C9483
:100850002014CF9386ED95E00E94E604892B81F069
:1008600086ED95E00E945804C82F682F85E897E030
:100870000E94E5166C2F84E397E00E945B15EACF97
:1008800085E897E00E946616892B81F085E897E05D
:100890000E948016C82F682F86ED95E00E9479048B
:1008A0006C2F84E397E00E945B15EACFCF91089507
:1008B000209165063091660628173907B9F49091A2
:1008C000230680912406981789F0E0912306F0E032
:1008D000EB5DF94F80812091230630E02F5F3F4F81
:1008E0002F7333272093230690E008958FEF9FEF17
:1008F00008951F93CF93DF93DC015C962D913C917B
:100900005D972115310539F481E090E013969C93B1
:100910008E9312973DC05196ED91FC91529750964F
:100920009C915097892F80951FB75E964C915E974A
:1009300041FB772770F941FD6095F894408177235A
:1009400011F0492B01C048234083E9012197F1F7B9
:1009500048E0508160FF02C0592B01C058235083EA
:10096000E9012197F1F76695415099F7772321F036
:1009700090818923808303C08081982B90831FBF3F
:100980005C968D919C915D970197F1F721E030E0A5
:10099000C901DF91CF911F910895089520916506B7
:1009A000309166062817390771F4909123068091DB
:1009B0002406981741F0E0912306F0E0EB5DF94F33
:1009C000808190E008958FEF9FEF08952091650654
:1009D000309166062817390771F48091240620911A
:1009E000230690E0805C9F4F821B910960E470E0D9
:1009F0000E946B1D089580E090E00895E0916506E7
:100A0000F0916606E817F90769F4A389B4899C9107
:100A10008589809589238C931092660610926506CD
:100A200081E0089580E00895CF93DF93EC018A8DF3
:100A30009B8D892BF1F080916506909166068C174D
:100A40009D07B9F0009711F00E94FE048E8D8E7FF5
:100A50008E8F1092240610922306D0936606C093C0
:100A60006506EB89FC8990818D89892B808381E0E3
:100A700001C080E0DF91CF9108951F920F920FB6D1
:100A80000F9211242F933F934F935F936F937F9314
:100A90008F939F93AF93BF93EF93FF93E09165067E
:100AA000F0916606309709F451C0968DA685B785FA
:100AB000858591FF04C09C91892329F447C09C91AE
:100AC000892309F043C0A389B4899C9185898095C5
:100AD00089238C93868997890197F1F7608D718DB1
:100AE000A685B785558538E020E0CB010197F1F761
:100AF000822F90E095958795282F4C91452309F0FA
:100B00002068315091F7868D81FD209580912406D3
:100B100090E001968F73992730912306381749F09A
:100B2000A0912406B0E0AB5DB94F2C9380932406CE
:100B300003C0868D8160868F828D938D0197F1F73A
:100B4000A389B4899C918589892B8C93FF91EF911E
:100B5000BF91AF919F918F917F916F915F914F91D5
:100B60003F912F910F900FBE0F901F90189529E580
:100B700035E0FC01318320830C94FE041F93CF9356
:100B8000DF93EC01162F6E8D6695617081E068270A
:100B9000812F0E942B1561E0812F0E94EF14612F9D
:100BA00070E0FB01E652FA4FE491E88BFB01E8505C
:100BB000FA4FE491F0E0EE0FFF1FEC5DF94F8591E5
:100BC00094919A8B898BDF91CF911F9108951F93F8
:100BD000CF93DF93EC01162F60E0812F0E94EF147A
:100BE0008E8D81FD04C061E0812F0E942B151C8732
:100BF000612F70E0FB01E652FA4FE491ED87FB01B3
:100C0000E850FA4FE491F0E0EE0FFF1FEA5EF94F73
:100C1000859194919F878E87DF91CF911F91089541
:100C20001F93CF93DF93EC01162F1B821A8288EE5D
:100C300093E0A0E0B0E08C839D83AE83BF8389E521
:100C400095E0998388831F8A1E8A198E188E1B8EC1
:100C50001A8E1D8E1C8E8E8D8E7F20FB81F98E8FBD
:100C6000642FCE010E94BE05612FCE01DF91CF918E
:100C70001F910C94E705CF93DF93EC019A01AB0130
:100C80001B8E1A8E198E188E1F8A1E8A60E874E8D1
:100C90008EE190E00E94A11DF9012430310518F089
:100CA000C901039702C081E090E09D8F8C8F8C85F5
:100CB00098EF980F943048F062EF680F643028F096
:100CC00066EE680F633008F071C0B90176956795DC
:100CD0006431710518F06351710902C061E070E080
:100CE0007F8B6E8B369720F0B9016550710902C079
:100CF00061E070E0798F688FB901660F771F260F6A
:100D0000371F36952795369527952D30310518F0E4
:100D10002C50310902C021E030E03B8F2A8F943003
:100D200058F092EF980F943038F08A51833008F4DD
:100D300042C0A0E0B0E041C0A8E6B0E0E8E6F0E0E4
:100D4000808181608C938C8598EF980F943058F057
:100D500022EF280F243038F026EE280F233018F029
:100D600020E030E002C02BE630E03C8B2B8B94304F
:100D700010F4845009C08E3069F08F3069F08031F2
:100D800069F0813169F0865191E001C0990F8A952F
:100D9000EAF707C098E005C092E003C094E001C004
:100DA00091E09D8B8C8D9D8D0197F1F7CE01DF91A8
:100DB000CF910C941405A8E6B0E0833008F4BECFC0
:100DC000E0E0F0E0BDCF8091970690E0209198069A
:100DD000821B910908959091980680919706981723
:100DE00050F4E92FF0E0E756F94F208130E09F5FA3
:100DF0009093980602C02FEF3FEFC9010895E0914C
:100E0000980680919706E81730F4F0E0E756F94F1E
:100E1000808190E008958FEF9FEF08950895CF921D
:100E2000DF92EF92FF920F931F93CF93DF937C019A
:100E3000262F972F8A0180917306882391F0C62F61
:100E4000D72F6E01C40ED51ECC15DD0571F069914A
:100E5000D701ED91FC910190F081E02DC70109953A
:100E6000F3CF642F822F0E942208C801DF91CF9117
:100E70001F910F91FF90EF90DF90CF900895CF9347
:100E8000DF931F92CDB7DEB76983209173062223CB
:100E9000D1F020917406203240F021E030E0FC01D6
:100EA0003383228380E090E015C080917506E82F9F
:100EB000F0E0EA58F94F998190838F5F809375062F
:100EC0008093740605C061E0CE0101960E9422085D
:100ED00081E090E00F90DF91CF910895FC011382A3
:100EE000128288EE93E0A0E0B0E084839583A6832D
:100EF000B78389E695E091838083089510929806E0
:100F00001092970610927506109274060C94AE0714
:100F100081E0809373066093960610927506109296
:100F2000740608950C9488070F93062F21E04091D2
:100F3000740666E776E0809196060E94CC071092D0
:100F4000750610927406109273060F91089561E071
:100F50000C94940787E696E00C946E07109226078F
:100F600081E0809324071092230761E082E00E94D1
:100F70002B1561E083E00E942B15E9EBF0E0808106
:100F80008E7F808380818D7F808380E28093B80014
:100F900085E48093BC0008950F93413208F04AC065
:100FA000909126079111FCCF32E0309326070093F1
:100FB00024073FEF3093B9061092FE064093FD06DA
:100FC000FB016FEF76E0DB013A2F361B341718F484
:100FD00031913D93F9CF1092250730912507880F65
:100FE000832B8093250780912307813061F4109231
:100FF0002307809125078093BB008091BC0083FD6F
:10100000F8CF85EC01C085EE8093BC00222321F04F
:10101000809126078230D1F38091B9068F3F79F015
:101020008091B906803241F08091B906803331F069
:1010300094E005C091E003C092E001C093E0892FE5
:101040000F9108954091DB06262F30E0240F311DCB
:1010500021323105DCF4209126072430C9F4FC014B
:1010600080E090E0861758F43091DB062191DC0196
:10107000A352B94FA30FB11D2C930196F3CF8091CA
:10108000DB06680F6093DB0680E0089581E0089539
:1010900082E0089585ED8093BC008091BC0084FDC2
:1010A000FCCF10922607089585EC8093BC00109227
:1010B000260708951F920F920FB60F9211242F93B7
:1010C0003F934F935F936F937F938F939F93AF93D0
:1010D000BF93EF93FF938091B900887F803609F426
:1010E0009EC078F5883209F45DC090F4803109F42F
:1010F00056C038F4882309F4F5C0883009F44FC08D
:10110000F5C0883109F44EC0803209F45FC0EEC0EA
:10111000803409F46AC058F4803309F457C0883326
:1011200009F0E4C08093B9060E945408DFC08035FE
:1011300009F44FC0883509F45DC0883409F0D6C081
:10114000D3C0883909F4C4C0A8F4883709F467C04B
:1011500038F4883609F463C0803709F460C0C6C02B
:10116000883809F4B5C0803909F45FC0803809F0C7
:10117000BDC05BC0803B09F483C038F4803A09F4F9
:1011800066C0883A09F47CC0B1C0803C09F4A4C0B0
:10119000883C09F4A1C0883B09F487C0A7C08091AE
:1011A000250710C09091FE068091FD06981770F5F6
:1011B000E091FE0681E08E0F8093FE06F0E0E150A4
:1011C000F94F80818093BB0085EC83C08093B90682
:1011D0008BC0E091FE0681E08E0F8093FE06809129
:1011E000BB00F0E0E150F94F80839091FE068091C2
:1011F000FD066BC0E091FE0681E08E0F8093FE0637
:101200008091BB00F0E0E150F94F8083809124078A
:1012100081116AC081E08093230784EA5EC083E085
:10122000809326071092BA06CFCF8091BA068032FB
:1012300008F04EC0E091BA0681E08E0F8093BA06A6
:101240008091BB00F0E0E554F94F8083BDCF0E9450
:1012500054088091BA06803230F4E091BA06F0E08A
:10126000E554F94F10826091BA0670E0E0911F07D3
:10127000F09120078BEB96E009951092BA0636C0E4
:1012800084E0809326071092DC061092DB06E09142
:101290002107F091220709958091DB06811105C095
:1012A00081E08093DB061092DD06E091DC0681E0B0
:1012B0008E0F8093DC06F0E0E352F94F808180933B
:1012C000BB009091DC068091DB06981708F47CCF78
:1012D00085E88093BC000AC085EC8093BC00109226
:1012E000260704C01092B9060E944A08FF91EF91A8
:1012F000BF91AF919F918F917F916F915F914F912E
:101300003F912F910F900FBE0F901F9018952F9225
:101310003F924F925F926F927F928F929F92AF9285
:10132000BF92CF92DF92EF92FF920F931F93CF93D2
:10133000DF9300D01F92CDB7DEB74C017B836A8369
:101340006A01590117019801241B350B37FF03C0AF
:10135000319521953109C5014A815B81841B950B2B
:1013600097FF03C091958195910951E059838217A8
:10137000930714F019820BC09A2D8B2D5801092F59
:10138000182F9A818B81DB82CA82C92ED82E8A813E
:101390009B81A816B9065CF49C2D8D2D6801092F40
:1013A000182F9A818B81BB82AA82A92EB82E250183
:1013B000AA81BB814A1A5B0A38016C187D0877FE46
:1013C00003C0719461947108720157FE03C0BFEFAE
:1013D000EB1AFB0AF594E794C016D1061CF00FEF48
:1013E0001FEF1FC001E010E01CC0D401ED91FC9183
:1013F000B9810480F581E02D9101BB23C1F04A81C0
:101400005B81B601C4010995E618F708F7FE04C030
:10141000C00ED11EE40CF51CEA81FB813196FB83E2
:10142000EA834A815B81A416B506FCF604C0A601D6
:101430006A817B81E7CF0F900F900F90DF91CF9162
:101440001F910F91FF90EF90DF90CF90BF90AF90E2
:101450009F908F907F906F905F904F903F902F90D4
:1014600008956F927F928F929F92AF92BF92CF9288
:10147000DF92EF92FF920F931F93CF93DF93EC01D4
:101480004B015A0169013801E881F9810284F38531
:10149000E02D87010995E881F981A501460D571DC9
:1014A000415051090284F385E02D9601B401CE012B
:1014B0000995E881F9810084F185E02D9301A5016A
:1014C000B401CE010995E881F981C80CD91CB60197
:1014D000615071090084F185E02D9301A501CE01D1
:1014E0000995DF91CF911F910F91FF90EF90DF90C1
:1014F000CF90BF90AF909F908F907F906F90089506
:10150000EF92FF920F931F937801DC01ED91FC9114
:10151000240F351F8901015011090680F781E02D44
:101520009B0109951F910F91FF90EF900895EF9205
:10153000FF920F931F93DC01ED91FC91260F371F53
:10154000215031090680F781E02D78018A01099543
:101550001F910F91FF90EF9008956F927F928F925D
:101560009F92AF92BF92CF92DF92EF92FF920F9332
:101570001F93CF93DF936C015A014801EB013B01AC
:10158000620E731EC615D70574F4D601ED91FC9159
:101590000084F185E02D87019401A501BE01C601FB
:1015A00009952196EFCFDF91CF911F910F91FF9079
:1015B000EF90DF90CF90BF90AF909F908F907F90F3
:1015C0006F900895EF92FF920F931F93DC01ED91BE
:1015D000FC9111971A960D911C911B9718962D91BD
:1015E0003C9119970684F785E02D7B0140E050E09F
:1015F00060E070E009951F910F91FF90EF900895C2
:101600000895FC011382128289E795E0918380831B
:1016100075836483578346837187608753874287C6
:10162000158A158614861786168681E0848B2FEF1F
:101630003FEF338B228B318B208B868B178A118E59
:10164000108E08952F923F924F925F926F927F92E9
:101650008F929F92AF92BF92CF92DF92EF92FF92C2
:101660000F931F93CF93DF93CDB7DEB769970FB674
:10167000F894DEBF0FBECDBF3C014A011F830E832D
:10168000FD82EC82CA82DC0158964D915C9159979B
:101690004115510509F0A8C018968D919C91199794
:1016A000681779070CF060C11A968D919C911B9771
:1016B000881699060CF058C1D12CCB01EA81B6E00E
:1016C000EB9F800D911D1124181619060CF04CC1CA
:1016D000C60133E0880F991F3A95E1F7880D991DEF
:1016E000181619060CF040C1D30157968C91811140
:1016F00003C0203B08F02F5FB5E02B9F9001112421
:101700007E876D872B011B82F901E61BF70BF9879A
:10171000E8879401285F3F4F3B872A873B8135301C
:1017200059F0E885F9854D855E85E40FF51FE65390
:10173000FF4F5491598301C01982140154018981CA
:1017400080FF12C0D301ED91FC91BA81B13031F428
:101750000480F581E02D2E813F8118C00684F78535
:10176000E02DEE80FF801DC0EC81FD812E813F8148
:10177000E217F307E1F0D301ED91FC91BA81B130AA
:1017800059F40480F581E02D2C813D81A5016D8502
:101790007E85C30109950BC00684F785E02DEC809A
:1017A000FD8086019601A101B201C3010995E9817D
:1017B000E695E9832C0C3D1CFFEFAF1ABF0A2A8582
:1017C0003B85A216B30609F0BACF3B813F5F3B834E
:1017D0004C0C5D1C4D855E854F5F5F4F5E874D876E
:1017E000363009F09BCFC0C0FA013496349132975D
:1017F00085919491231BA7E02A9F800D911D1124B0
:10180000FA0125913491388B2F87FC012590349073
:10181000FC01329634913B83319644914C8731964A
:10182000E491FC013596A491319684915A8152300D
:1018300050F04A2E0A2E000C5508E82F082E000CF6
:10184000FF0BF987E887FA81CF2ED12C4C9C9001B1
:101850004D9C300D5C9C300D1124A901460F571F83
:101860005B874A871982A12CEA2FAA0FFF0BDB01A5
:10187000AE0FBF1FBD83AC83BB816B0F711D9B017E
:101880002E0F3F1F3D8B2C8BA401480F511D87FD50
:101890005A955F8B4E8B9C85A91608F065C08A2DE2
:1018A00090E048855985480F591F4C9D90014D9DEA
:1018B000300D5C9D300D1124D901A80DB91DBE87D6
:1018C000AD87EC81FD81F98FE88F4A845B84F981D3
:1018D0002C81F21BF98B4E895F89480F591F5B8B56
:1018E0004A8B8989F88D8F0F288D398D4C895D89B8
:1018F0002417350799F1877041F4C1010196EF85EE
:10190000F889E20DF31DB4901C01B7FE1EC0D3018F
:10191000ED91FC91BA81B13061F40480F581E02D44
:101920002E813F814A895B89688D798DC301099534
:101930000CC00684F785E02DEE80FF8086019601BD
:101940004D855E85B201C3010995BB0C4C0C5D1C35
:10195000E88DF98D3196F98FE88FC3CF59818B814E
:10196000580F5983A39497CF69960FB6F894DEBFAA
:101970000FBECDBFDF91CF911F910F91FF90EF90E0
:10198000DF90CF90BF90AF909F908F907F906F909F
:101990005F904F903F902F900895AF92BF92CF925B
:1019A000EF92FF920F931F93CF93DF93EC01262FBB
:1019B000888D998D009709F042C06A3069F42C89AE
:1019C0008E859F8538E0239F800D911D11249F8770
:1019D0008E871D861C86ACC06D3009F4A9C08E8927
:1019E0008823C1F03C898C859D8546E0349F800D1D
:1019F000911D112448855985841795075CF01D8633
:101A00001C868E859F85E8E03E9F800D911D1124E8
:101A10009F878E87EA88FB88088919894E855F85AC
:101A20006C857D85CC88CE010E94220B2C898C850B
:101A30009D85F6E02F9F800D911D112441C06A30D5
:101A400079F41D861C862C89FC013696E4918E85DE
:101A50009F852E9F800D911D11249F878E8768C0C2
:101A60006D3009F465C0AC014C5F5F4FFA013491F1
:101A7000631708F45DC03196E491E61708F458C086
:101A8000FA014491362F341BFC013296A590B49094
:101A9000F7E03F9FA00CB11C1124F5013296349160
:101AA0003196E491332311F0E1110DC0F501349624
:101AB000E4912C898C859D85E29F800D911D1124D8
:101AC0009D878C8735C0F501359644915E895523F5
:101AD00011F16C89E32FF0E0E40FF11D47FDFA9559
:101AE0006E9FD0016F9FB00D11244C855D854A0F0C
:101AF0005B1FE885F9854E175F076CF01D861C8615
:101B0000FC013696E4918E859F856E9F800D911D18
:101B100011249F878E87EA88FB88088919894E855A
:101B20005F856C857D85CC88CE010E94220BBECF5F
:101B300081E090E0DF91CF911F910F91FF90EF90A6
:101B4000CF90BF90AF900895FC0175876487578749
:101B500046870895611101C061E0FC01648B08951E
:101B6000FC01738B628B718B608B0895FC01718B10
:101B7000608B538B428B0895FC0185890895FC018D
:101B8000808591850895FC018285938508950F9342
:101B90001F93CF93DF93DC01FB0155968C915597F2
:101BA000823089F0833021F1813009F0E6C014964B
:101BB0008D919C911597BC01641B750BAB01415035
:101BC0005109BF011DC014966D917C911597CB01F1
:101BD0008E1B9F0BFC0116968D919C911797BC0153
:101BE000641B750BAB0141505109E21BF30BC5C0DF
:101BF00016966D917C9117976E1B7F0B621B730B72
:101C000057FD1AC114968D919C9115974817590745
:101C10000CF012C177FF04C0260F371F60E070E0A0
:101C200016968D919C911797FB01E20FF31F8E176B
:101C30009F071CF49C01261B370B121613060CF091
:101C4000FBC0A22F862F86958695869590E8899F62
:101C5000400D511D1124FA01EA5EFE4F6770A9F193
:101C600098E0961B492F50E0EA01C25FDE4F888161
:101C7000291790F4421B51092FEF30E002C035952F
:101C800027954A95E2F782230130110541F068F06B
:101C90000230110589F0D0C00130110519F42081FE
:101CA000822B0CC00130110520F480952081822305
:101CB00005C00230110531F4208182278083A917E5
:101CC00008F4BAC0A91BE058FF4FA83048F1023011
:101CD000110559F4EF018A2F988190959883C05887
:101CE000DF4F88508830C0F732C081E001301105E5
:101CF00009F080E08195EF019A2F8883C058DF4F6B
:101D000098509830D0F788EF8A0F869586958695FB
:101D100060E8869FE00DF11D1124E058FF4FA77089
:101D2000AA2309F489C0B0E0AA5FBE4F8C910130AC
:101D3000110529F038F002301105E1F07DC09081E5
:101D4000892B03C0809590818923808375C088EF9B
:101D50008A0F86958695869570E8879FE00DF11D20
:101D60001124E058FF4FA77009F466C0B0E0AA5FE5
:101D7000BE4F8C9190818927E8CF57FD5DC01696A4
:101D80008D919C911797481759070CF055C0F7FF94
:101D900004C02E0F3F1FE0E0F0E014968D919C915F
:101DA0001597BF01620F731F861797071CF49C01DC
:101DB0002E1B3F0B121613060CF03EC0CA0157FD36
:101DC000079663E0959587956A95E1F79695982F24
:101DD000882797958795E80FF91FEA5EFE4F4770B1
:101DE000552781E090E001C0880F4A95EAF7482F17
:101DF0000130110539F078F002301105E9F42E0FA9
:101E00003F1F13C02E0F3F1FE217F307A9F0808179
:101E1000842B8193F9CF80952E0F3F1FE217F30794
:101E200059F0908198239193F9CFE217F30721F0AD
:101E3000808184278193F9CFDF91CF911F910F91FA
:101E400008950F931F93CF93DF93DC0155968C91E8
:101E50005597823071F0833009F1813009F08CC0E0
:101E60001496ED91FC911597E41BF50BE21BF30B17
:101E700020C01496ED91FC911597CF01861B970B0E
:101E8000BC01615071091696ED91FC911797CF0135
:101E9000841B950BAC01421B530B6EC01696ED9143
:101EA000FC911797CF01861B970BBC0161507109FC
:101EB000FA0177FD1BC116968D919C9117976817B3
:101EC00079070CF013C1F7FF04C02E0F3F1FE0E0AD
:101ED000F0E014968D919C911597AF01420F531F1E
:101EE000841795071CF49C012E1B3F0B121613063A
:101EF0000CF0FCC0CB0177FD079643E095958795E4
:101F00004A95E1F79695982F882797958795E80F3A
:101F1000F91FEA5EFE4F6770772781E090E001C00D
:101F2000880F6A95EAF7482F0130110541F088F0D3
:101F30000230110509F0DAC02E0F3F1F15C02E0F19
:101F40003F1FE217F30709F4D1C08081842B8193EE
:101F5000F8CF80952E0F3F1FE217F30709F4C6C094
:101F6000908198239193F8CFE217F30709F4BEC04C
:101F7000808184278193F8CF77FDB8C014968D9126
:101F80009C911597681779070CF0B0C057FF04C0F3
:101F9000240F351F40E050E016968D919C911797C5
:101FA000FA01E20FF31F8E179F071CF49C01241BFC
:101FB000350B121613060CF099C0A22F842F8695AC
:101FC0008695869590E8899F600D711D1124FB010F
:101FD000EA5EFE4F4770A9F198E0941B492F50E04C
:101FE000EA01C25FDE4F8881291790F4421B510934
:101FF0002FEF30E002C0359527954A95E2F782230E
:102000000130110541F068F00230110589F06EC011
:102010000130110519F42081822B0CC0013011050B
:1020200020F480952081822305C00230110531F40F
:10203000208182278083A91708F458C0A91BE05883
:10204000FF4FA83048F10230110559F4EF018A2FF3
:10205000988190959883C058DF4F88508830C0F79A
:1020600030C081E00130110509F080E08195EF0179
:102070009A2F8883C058DF4F98509830D0F788EF58
:102080008A0F86958695869590E8899FE00DF11DCB
:102090001124E058FF4FA770AA2341F1B0E0AA5FD6
:1020A000BE4F8C910130110529F038F00230110536
:1020B000D1F01CC09081892B18C080959081892314
:1020C00014C088EF8A0F86958695869590E8899F3B
:1020D000E00DF11D1124E058FF4FA77039F0B0E07A
:1020E000AA5FBE4F8C91908189278083DF91CF9129
:1020F0001F910F910895CF92DF92EF92FF920F936D
:102100001F93CF93DF937C018B01EA01690177FD77
:10211000A0C00E94BF0D081719070CF09AC0D7FD88
:1021200098C0C7010E94C30DC817D9070CF091C011
:10213000C7010E94BC0D823009F07FC0F7016481A5
:102140007581CB01801B910B8C01015011094681D7
:102150005781FA01EC1BFD0BEF0121970BC0813079
:1021600049F4F701848195818C1B9D0BE8018C015A
:1021700001501109F1E0CF16D10431F010F182E0E5
:10218000C816D104E1F165C0FE01D7FD379643E0E2
:10219000F595E7954A95E1F7F695FE2FEE27F79529
:1021A000E7950E0F1F1FF801EA5EFE4FC770DD278F
:1021B00081E090E001C0880FCA95EAF79081892BF1
:1021C0003AC0FE01D7FD379623E0F595E7952A95AD
:1021D000E1F7F695FE2FEE27F795E7950E0F1F1FF7
:1021E000F801EA5EFE4FC770DD2781E090E001C094
:1021F000880FCA95EAF78095908189231CC0FE015B
:10220000D7FD379683E0F595E7958A95E1F7F69542
:10221000FE2FEE27F795E7950E0F1F1FF801EA5ED8
:10222000FE4FC770DD2781E090E001C0880FCA959E
:10223000EAF79081892780830CC0833009F08FCF23
:10224000F70186819781801B910B8E01EC0121970C
:1022500091CFDF91CF911F910F91FF90EF90DF9081
:10226000CF9008951F93CF93DF93EC01162F40E496
:1022700050E060E870E00E94010B81E995E09983ED
:1022800088838FEF8C8F88A38E8F8D8F1F8FDF9128
:10229000CF911F91089580E094E0E6E1F1E0DF0145
:1022A0009C011D9221503040E1F70895FC0181A16D
:1022B000882339F06EBD00000DB407FEFDCF8EB54A
:1022C000089528E030E090E8A4A1B5A14C9183A541
:1022D000809584238C93A2A1B3A182A5492F462384
:1022E00019F04C91842B03C04C91809584238C93DE
:1022F000A4A1B5A14C9183A5842B8C9396952150D4
:10230000310911F708951F93CF93DF93EC01162F36
:102310008C8D8F3F09F1EEA1FFA190818CA5892BB7
:102320008083E8A5F9A590818DA580958923808378
:10233000EEA1FFA190818CA5809589238083CE0199
:102340000E945611EEA1FFA190818CA5892B80835C
:10235000DF91CF911F9108958A8D682F880F770B99
:1023600087E696E00E94920760E087E696E00E948A
:102370003F07612F87E696E00E943F0787E696E0D9
:10238000DF91CF911F910C94A7070F931F93CF93C9
:10239000DF93EC01162F022F6B8F4A8F8C8D8F3FAE
:1023A00009F48CC061E08E8D0E94EF1461E088A179
:1023B0000E94EF1488A1082E000C990BFC01E85034
:1023C000FA4FE491F0E0EE0FFF1FEC5DF94F25911D
:1023D00034913FA32EA3FC01E652FA4FE491ECA7FF
:1023E0008E8D082E000C990BFC01E850FA4FE491F9
:1023F000F0E0EE0FFF1FEC5DF94F2591349139A706
:1024000028A7FC01E652FA4FE491EDA789A18111BA
:1024100034C061E08C8D0E94EF1461E08D8D0E94CC
:10242000EF148D8D082E000C990BFC01E850FA4F2B
:10243000E491F0E0EE0FFF1FEC5DF94F2591349130
:102440003DA32CA3FC01E652FA4FE491EBA78C8D3F
:10245000082E000C990BFC01E850FA4FE491F0E0D3
:10246000EE0FFF1FEC5DF94F259134913BA32AA39A
:10247000FC01E652FA4FE491EAA789A1882311F101
:102480000E947B1380912907882399F02FB7F89435
:1024900080912907813059F48DB3809327079DB32C
:1024A00080912807809589238DBB2FBF02C0209380
:1024B000270780E58CBD81E08DBD04C087E696E0EE
:1024C0000E947E070023F1F08F8D87FD1BC061E025
:1024D0000E94EF1461E08F8D0E942B1561E070E087
:1024E00080E090E00E94201460E08F8D0E942B1508
:1024F0006AE070E080E090E00E94201461E08F8D3F
:102500000E942B156EEACE010E94831165EDCE016B
:102510000E94831160E8CE010E94831168EACE0117
:102520000E9483116FE3CE010E94831163EDCE01FF
:102530000E94831160E0CE010E94831160E4CE010D
:102540000E9483116DE8CE010E948311113011F4B5
:1025500060E101C064E1CE010E94831160E2CE011E
:102560000E94831160E0CE010E94831161EACE01D6
:102570000E94831168ECCE010E9483116AEDCE01A6
:102580000E94831162E1CE010E94831161E8CE01B5
:102590000E948311113011F46FE901C06FECCE017C
:1025A0000E94831169EDCE010E948311113011F454
:1025B00062E201C061EFCE010E9483116BEDCE019A
:1025C0000E94831160E4CE010E94831164EACE016F
:1025D0000E94831166EACE010E9483116EE2CE0151
:1025E0000E9483116FEACE01DF91CF911F910F916D
:1025F0000C948311DF92EF92FF920F931F93CF936E
:10260000DF93EC0161E20E94831160E0CE010E9441
:1026100083116FE7CE010E94831162E2CE010E9416
:10262000831160E0CE010E94831167E0CE010E9419
:1026300083118C8D8F3F31F1EEA1FFA190818CA58C
:10264000892B8083E8A5F9A590818DA5892B8083AE
:10265000EEA1FFA190818CA580958923808306E15E
:1026600011E0F80161918F01CE010E945611F5E051
:1026700006311F07B1F7EEA1FFA190818CA5892B30
:10268000808331C0D090B8008CE08093B80006E120
:1026900011E06A8D062E000C770B87E696E00E940B
:1026A000920760E487E696E00E943F07E12CF12C58
:1026B000F801EE0DFF1D608187E696E00E943F075E
:1026C0008FEFE81AF80AE0E1EE16F10489F787E6E1
:1026D00096E00E94A707005F1F4FF5E006311F0735
:1026E000C1F6D092B800DF91CF911F910F91FF906A
:1026F000EF90DF900895CF93CFB7F89480912A0799
:10270000811127C0E9E0F6E08491EBEEF5E09491C9
:10271000E82FF0E0EE0FFF1FEE5CF94FA591B491AA
:10272000EC91E92321F461E081E10E942B1561E045
:1027300081E10E94EF148CB580618CBD8CB5806402
:102740008CBD61E08FE00E94EF1461E080E10E94A7
:10275000EF1480912A078F5F80932A07CFBFCF9114
:1027600008951F920F920FB60F9211242F933F934B
:102770008F939F93AF93BF9380912C0790912D07D8
:10278000A0912E07B0912F0730912B0726E0230F41
:102790002D3720F40296A11DB11D05C029E8230F95
:1027A0000396A11DB11D20932B0780932C079093B6
:1027B0002D07A0932E07B0932F078091300790919B
:1027C0003107A0913207B09133070196A11DB11DC9
:1027D0008093300790933107A0933207B09333076B
:1027E000BF91AF919F918F913F912F910F900FBE0D
:1027F0000F901F9018953FB7F894809130079091F3
:102800003107A0913207B091330726B5A89B05C0C8
:102810002F3F19F00196A11DB11D3FBFBA2FA92F5F
:10282000982F8827820F911DA11DB11DBC01CD01DC
:1028300043E0660F771F881F991F4A95D1F70895C7
:102840008F929F92AF92BF92CF92DF92EF92FF92C0
:102850006B017C010E94FB134B015C01C114D1048C
:10286000E104F10401F10E94D11C0E94FB13DC0180
:10287000CB0188199909AA09BB09883E9340A10593
:10288000B10560F321E0C21AD108E108F10888EE31
:10289000880E83E0981EA11CB11CC114D104E10470
:1028A000F10419F7DBCFFF90EF90DF90CF90BF904E
:1028B000AF909F908F900895789484B5826084BD86
:1028C00084B5816084BD85B5826085BD85B5816034
:1028D00085BDEEE6F0E0808181608083E1E8F0E094
:1028E0001082808182608083808181608083E0E8C3
:1028F000F0E0808181608083E1E9F0E080818260A6
:102900008083808181608083E0E9F0E08081816064
:102910008083E1ECF0E0808184608083808182604C
:102920008083808181608083E3ECF0E0808181603E
:102930008083E0ECF0E0808182608083E2ECF0E074
:10294000808181608083EAE7F0E080818460808319
:1029500080818260808380818E7F80838081806897
:102960008083089590E0FC013197EF30F105B0F5D8
:10297000EA5AFF4F0C94C01D809180008F7703C0EE
:10298000809180008F7D80938000089580918000E9
:10299000877FF9CF84B58F7702C084B58F7D84BDE2
:1029A0000895809190008F7707C0809190008F7D6F
:1029B00003C080919000877F80939000089580915C
:1029C000C0008F7703C08091C0008F7D8093C000CE
:1029D00008958091C200877F8093C2000895CF93AD
:1029E000DF9390E0FC01E652FA4F2491FC01E8509D
:1029F000FA4F8491882361F190E0880F991FFC01C0
:102A0000EE5CF94FC591D491FC01EC5DF94FA591B5
:102A1000B491611109C09FB7F894888120958223F1
:102A20008883EC912E230BC0623061F49FB7F89439
:102A30003881822F809583238883EC912E2B2C93D1
:102A40009FBF06C08FB7F894E8812E2B28838FBFD5
:102A5000DF91CF9108951F93CF93DF93282F30E01C
:102A6000F901E653FA4F8491F901E652FA4FD491F5
:102A7000F901E850FA4FC491CC23C9F0162F811107
:102A80000E94B214EC2FF0E0EE0FFF1FEC5DF94F47
:102A9000A591B4918FB7F894111105C09C91ED2FB9
:102AA000E095E92302C0EC91ED2BEC938FBFDF9111
:102AB000CF911F910895CF93DF931F92CDB7DEB7CB
:102AC0006983DC01ED91FC910280F381E02D41E00E
:102AD00050E0BE016F5F7F4F09950F90DF91CF915E
:102AE0000895CF93DF93EC018C859D8597FF05C0FA
:102AF00082E00E9480199D878C878C859D85DF915F
:102B0000CF91089583E00C94131CFC018485958576
:102B100097FD06C082E00E942A1990E00196089570
:102B200082E00E942A1990E00895FC018485958531
:102B300097FD05C02FEF3FEF35872487089582E08A
:102B40000C948019CF93DF93EC01809121058823A9
:102B500031F083E00E94B1191816190634F081E0B3
:102B600090E09B838A8380E090E0DF91CF9108958D
:102B7000FC0190819E5F908342E450E060E476E047
:102B800080E80C94521AFC0181819081913A59F4A9
:102B9000813209F048C047E050E06AE175E080E02A
:102BA0000E94521A76C09132F1F5833291F49381EA
:102BB000892F90E0982F88272281822BA0E0B0E017
:102BC0008093160590931705A0931805B0931905E7
:102BD00060C0803239F467E070E08AE195E00E94DD
:102BE000791A06C0823209F054C08281809321058F
:102BF00080918407882319F0EEEFFAE002C0E0E04C
:102C0000F8E080911A0590911B05A0911C05B091E8
:102C10001D05803B9440A105B10539F48091210543
:102C200080FF1FC002C080E008950FB6F894A895F9
:102C300080916000886180936000109260000FBEF8
:102C4000A895EE3F8AE0F80739F08091FE0A90914E
:102C5000FF0A918380831DC01092FF0A1092FE0A22
:102C600018C0EE3F2AE0F20731F080819181909305
:102C7000FF0A8093FE0A87E797E7918380839BE0B2
:102C800088E10FB6F894A895809360000FBE9093EA
:102C9000600081E008952FEF3FEFFC013587248726
:102CA0000895E4E3F7E01382128288EE93E0A0E057
:102CB000B0E084839583A683B78389EA95E0918306
:102CC00080838FEF9FEF958784870895FC01918D16
:102CD000228D892F90E0805C9F4F821B91098F731A
:102CE00099270895FC01918D828D981731F0828D7E
:102CF000E80FF11D858D90E008958FEF9FEF089507
:102D0000FC01918D828D981761F0828DDF01A80FF3
:102D1000B11D5D968C91928D9F5F9F73928F90E015
:102D200008958FEF9FEF089584EE97E1892B49F086
:102D300080E090E0892B29F00E94E41781110C9427
:102D400000000895FC01848DDF01A80FB11DA35A76
:102D5000BF4F2C91848D90E001968F739927848FBB
:102D6000A689B7892C93A089B1898C9180648C93B2
:102D7000938D848D981306C00288F389E02D80819D
:102D80008F7D80830895CF93DF93EC01888D882316
:102D9000C9F0EA89FB89808185FD05C0A889B989C8
:102DA0008C9186FD0FC00FB607FCF5CF808185FFA3
:102DB000F2CFA889B9898C9185FFEDCFCE010E9411
:102DC000A216E7CFDF91CF910895EF92FF920F9374
:102DD0001F93CF93DF93EC0181E0888F9B8D8C8DC7
:102DE000981305C0E889F989808185FD24C0F62EF5
:102DF0000B8D10E00F5F1F4F0F731127E02E8C8D8E
:102E0000E8120CC00FB607FCFACFE889F989808177
:102E100085FFF5CFCE010E94A216F1CF8B8DFE016A
:102E2000E80FF11DE35AFF4FF0820B8FEA89FB890F
:102E30008081806207C0EE89FF896083E889F98913
:102E400080818064808381E090E0DF91CF911F9149
:102E50000F91FF90EF900895CF92DF92EF92FF9243
:102E60001F93CF93DF93EC016A017B01122F60E87F
:102E700074E88EE190E0A70196010E947F1DDA01BF
:102E8000C9010197A109B109B695A79597958795AD
:102E9000AC01E889F98982E08083411580E1580717
:102EA000A8F0E889F989108260E472E48FE090E08C
:102EB000A70196010E947F1DBA01A9014150510945
:102EC000610971097695679557954795EC85FD855C
:102ED0005083EE85FF854083188EEC89FD89108331
:102EE000EA89FB89808180618083EA89FB8980810E
:102EF00088608083EA89FB89808180688083EA8991
:102F0000FB8980818F7D8083DF91CF911F91FF901E
:102F1000EF90DF90CF9008951F920F920FB60F920F
:102F200011242F938F939F93EF93FF93E091950735
:102F3000F09196078081E0919B07F0919C0782FDBC
:102F400012C0908180919E078F5F8F7320919F07A1
:102F5000821751F0E0919E07F0E0EB57F84F958F04
:102F600080939E0701C08081FF91EF919F918F9187
:102F70002F910F900FBE0F901F9018951F920F92D8
:102F80000FB60F9211242F933F934F935F936F933C
:102F90007F938F939F93AF93BF93EF93FF9385E8B6
:102FA00097E00E94A216FF91EF91BF91AF919F9180
:102FB0008F917F916F915F914F913F912F910F90E2
:102FC0000FBE0F901F90189585E897E00E94661637
:102FD00021E0892B09F420E0822F0895E5E8F7E04D
:102FE0001382128288EE93E0A0E0B0E084839583A0
:102FF000A683B78389EB95E0918380838DEC90E085
:10300000958784878CEC90E09787868788EC90E0A2
:10301000918B808B89EC90E0938B828B8AEC90E093
:10302000958B848B8EEC90E0978B868B118E128E15
:10303000138E148E0895CF92DF92EF92FF920F932A
:103040001F93CF93DF936C017A018B01C0E0D0E036
:10305000CE15DF0589F0D8016D918D01D601ED9176
:10306000FC910190F081E02DC6010995892B11F4A6
:103070007E0102C02196ECCFC701DF91CF911F9155
:103080000F91FF90EF90DF90CF900895611571053B
:1030900079F0FB0101900020E9F73197AF01461B61
:1030A000570BDC01ED91FC910280F381E02D099436
:1030B00080E090E0089565EC75E00C9446180F935D
:1030C0001F93CF93DF93EC010E9446188C01CE0131
:1030D0000E945B18800F911FDF91CF911F910F917C
:1030E0000895615030F02091F100FC012083019699
:1030F000F8CF289884E680932B08089540912608FD
:103100005091270820912408309125084217530731
:10311000B4F49091E8009570E1F39091E80092FD8D
:1031200019C08093F100809126089091270801969C
:103130008F739927892B19F48EEF8093E800809183
:1031400026089091270801969093270880932608D7
:1031500081E0089580E00895CF92DF92EF92FF9290
:103160000F931F93CF93DF931F92CDB7DEB7182F26
:10317000062FE42E862F880F8E5F99830E947E187B
:1031800083E00E947E18F12EC12E9981D92E8C2DBC
:103190008F19801798F4F601E7FE02C0849101C0F0
:1031A00080810E947E18182F80E00E947E18812363
:1031B000FFEFCF1ADF0A8111EACF01C081E00F9043
:1031C000DF91CF911F910F91FF90EF90DF90CF9003
:1031D00008958091D70081608093D70080EA809322
:1031E000D80089B58F7E89BD89B5826089BD09B453
:1031F00000FEFDCF61E070E080E090E00E942014CE
:103200008091D8008F7C80618093D8008091E0000D
:10321000807F8093E0000895CF93DF931F92CDB716
:10322000DEB71982CE0101960E94B8150E94571D83
:10323000BE016F5F7F4F0E94D21C89810F90DF918A
:10324000CF9108952FB7FC012083F89467706093A5
:10325000E9000895CF93DF931F92CDB7DEB7682FB3
:10326000CE0101960E9422198091F20099819FBFA0
:103270000F90DF91CF910895EF92FF920F931F93DC
:10328000CF93DF931F92CDB7DEB790912A08992391
:1032900011F057FF03C08FEF9FEF2AC08A017B0117
:1032A000682FCE0101960E9422198091F20090E0D1
:1032B000A801801791070CF4AC01842FF70194E664
:1032C000815038F0289890932B082091F100219399
:1032D000F7CF4115510521F08091F200882321F0AC
:1032E00089818FBFCA0104C08BE68093E800F8CFC4
:1032F0000F90DF91CF911F910F91FF90EF90089564
:10330000CF93DF931F92CDB7DEB741E050E0BE010F
:103310006F5F7F4F0E943C19019719F4898190E0FB
:1033200002C08FEF9FEF0F90DF91CF910895CF9361
:10333000DF931F92CDB7DEB7682FCE0101960E94B2
:1033400022199091E800892F807295FF04C0909116
:10335000F2008FE3891B99819FBF0F90DF91CF917E
:1033600008956F927F928F929F92AF92BF92CF9269
:10337000DF92EF92FF920F931F93CF93DF931F92F1
:10338000CDB7DEB7A82E6B01B42E052F80912A0889
:10339000811103C08FEF9FEF6AC08091280880FFE2
:1033A00005C08091E00082608093E000EB2CF02E5D
:1033B0008AEF982E8A2D8072782E9AE3892E8A2D94
:1033C0008074682EE114F10409F447C08A2D0E942C
:1033D0009719182F81110AC09A949920D9F261E0A7
:1033E00070E080E090E00E942014ECCF90E0E816BE
:1033F000F9060CF41E2D6A2DCE0101960E942219A9
:103400008091E80085FF26C0812F90E0E81AF90A34
:10341000772029F01150A8F01092F100FBCFF601AF
:10342000A7FE07C0115058F024912093F100319667
:10343000F9CF115020F021912093F100FACFC80E5E
:10344000D91E8091E80085FF0FC0E114F10411F44A
:1034500061100AC089818FBFB5CF5D9884E68093E3
:103460002C088B2D902F03C08092E800F3CF0F9093
:10347000DF91CF911F910F91FF90EF90DF90CF9050
:10348000BF90AF909F908F907F906F900895109213
:10349000E90010922708109226089093250880933F
:1034A00024080895DF92EF92FF920F931F93CF931A
:1034B000DF93D82E8A017B01E40EF51EEB01CE15B9
:1034C000DF0571F0D7FE03C0FE01849101C0888141
:1034D0000E947E1821968111F2CF8FEF9FEF01C0DD
:1034E000C801DF91CF911F910F91FF90EF90DF9076
:1034F0000895BF92CF92DF92EF92FF920F931F93A6
:10350000CF93DF936C018B01EB019BEFB92E2097DA
:10351000C1F07E01C134D1051CF080E4E82EF12C0D
:103520008091E80082FFFCCFC8018C1B9D0B6E2DA3
:103530008C0D9D1D0E947118B092E800CE19DF0914
:10354000E6CFC801DF91CF911F910F91FF90EF90CF
:10355000DF90CF90BF9008951F920F920FB60F92F9
:103560001124CF92DF92EF92FF920F931F932F932C
:103570003F934F935F936F937F938F939F93AF93FB
:10358000BF93EF93FF93CF93DF93CDB7DEB76C97E5
:10359000DEBFCDBF1092E9008091E80083FF24C117
:1035A00068E0CE0145960E94711882EF8093E80092
:1035B0008D8987FF05C09091E80090FFFCCF03C084
:1035C0009EEF9093E800982F907609F0F1C09E89C5
:1035D0002F89188D91110CC0803829F48091290809
:1035E0008093F10002C01092F1001092F100F5C03A
:1035F000422F50E0512B913051F48111EEC04130F7
:10360000510509F0EAC0809129088D7F0BC09330E5
:1036100061F48111E2C04130510509F0DEC08091B2
:103620002908826080932908D8C0953041F48091A0
:10363000E80080FFFCCF20682093E300CEC09630E6
:1036400009F08CC0EB8CFC8C123069F580E090E0C6
:103650000E94471A0E940C1999E09E012F5F3F4F6C
:103660006901F901292F11922A95E9F799831A83A3
:1036700091E09E8390EA98879AEF99872091260897
:1036800030912708275F3F4F3C832B838D83C701F1
:103690000E94471A49E050E0B60180E00E94521AA9
:1036A0000E940C199AC0C7010E94471A0E94571D18
:1036B000BE016B5E7F4F0E94FB1C009719F00CF05F
:1036C0008CC08FC0113071F48B8D9C8D089719F4CC
:1036D00081E0809323088091230881112FC064E941
:1036E00076E031C0133009F07CC08F89882349F11E
:1036F000823029F440E865E184EB96E006C0813031
:1037000039F440E86DE086EA96E00E94AC1863C0A8
:10371000833009F066C00E94571D8E010F5F1F4F56
:10372000B8010E941A1DF80101900020E9F73197B5
:10373000BF01601B710B40E0C801E7CF62E876E093
:1037400002C06AEC76E06115710509F44AC0FB011C
:10375000449150E080E80E94521A3FC0973009F42B
:1037600040C0983021F481E08093F10036C0993058
:10377000A1F58370B1F5E3E2F5E081E021E036E305
:103780009081992361F08093E9002093EB0091915F
:103790009093EC003093ED008F5F873089F78EE7D0
:1037A0008093EA001092EA008F8980932A0815C05E
:1037B0008B8D9C8D0E94471A898D811105C0CE0189
:1037C00045960E94C31507C00E94571DBE016B5E3F
:1037D0007F4F0E94391D882321F08EEF8093E800EF
:1037E00003C081E28093EB006C960FB6F894DEBFC5
:1037F0000FBECDBFDF91CF91FF91EF91BF91AF9100
:103800009F918F917F916F915F914F913F912F91F8
:103810001F910F91FF90EF90DF90CF900F900FBE10
:103820000F901F9018958093E9008091F2008823F3
:1038300019F08AE38093E80008951F920F920FB663
:103840000F9211242F933F934F935F936F937F9326
:103850008F939F93AF93BF93CF93EF93FF93C091B9
:10386000E1008091E100837F8093E100C3FF0FC0FE
:103870001092E90081E08093EB001092EC0082E36B
:103880008093ED0010922A0888E08093F000C2FF38
:1038900019C083E00E94131C80912C08882339F002
:1038A00080912C08815080932C08882389F1809185
:1038B0002B08882339F080912B08815080932B08A6
:1038C000882341F1C4FF10C08091E2008E7E8160A8
:1038D0008093E2008091E1008F7E8093E1008091EF
:1038E00028088E7E806111C0C0FF16C08091E20062
:1038F0008E7E80618093E2008091E1008E7E8093D5
:10390000E100809128088E7E81608093280804C0A1
:103910005D9ACDCF289AD6CFFF91EF91CF91BF91ED
:10392000AF919F918F917F916F915F914F913F9157
:103930002F910F900FBE0F901F90189510922A088C
:1039400010922908109228080E94E9188091E1003D
:103950008E7E8093E1008DE08093E200559A209A5C
:10396000EEEFFFE7859194918B3F9C4D19F481E038
:103970008093840708950E94DA1D08950E945C14C4
:103980000E94BD1C82E298E00E949E1C0E94A60339
:10399000C4E9D6E10E9429042097E1F30E9494161D
:1039A000F9CF0895EF92FF920F931F93CF93DF9378
:1039B0007B01FC01C281D38100E010E0209781F0FF
:1039C000E881F9810280F381E02DB701CE010995EC
:1039D00097FD08C0080F191F0884D985C02DEECFA8
:1039E000C80102C08FEF9FEFDF91CF911F910F9120
:1039F000FF90EF9008950F931F93CF93DF938B0168
:103A0000FC01C281D381209771F0E881F9810480A3
:103A1000F581E02DB801CE010995009731F40884B5
:103A2000D985C02DF0CF80E090E0DF91CF911F913C
:103A30000F9108950F931F93CF93DF938B01FC0198
:103A4000C281D381209771F0E881F9810680F781E6
:103A5000E02DB801CE010995080F111D0884D98504
:103A6000C02DF0CFF8011082DF91CF911F910F91FF
:103A700008950F931F93CF93DF938B01FC01C281B5
:103A8000D381209771F0E881F9810190F081E02DD8
:103A9000B801CE010995811105C00884D985C02DD2
:103AA000F0CF80E0DF91CF911F910F910895809129
:103AB000310881110DC082E080932D0884E080934D
:103AC0002E081092300810922F0881E08093310860
:103AD0008DE298E0089597FB072E16F4009407D026
:103AE00077FD09D00E94C61D07FC05D03EF49095D5
:103AF00081959F4F0895709561957F4F0895A1E23C
:103B00001A2EAA1BBB1BFD010DC0AA1FBB1FEE1F57
:103B1000FF1FA217B307E407F50720F0A21BB30BA2
:103B2000E40BF50B661F771F881F991F1A9469F71E
:103B300060957095809590959B01AC01BD01CF017A
:103B40000895052E97FB1EF400940E94B81D57FDA2
:103B500007D00E947F1D07FC03D04EF40C94B81DC3
:103B600050954095309521953F4F4F4F5F4F0895A9
:103B700090958095709561957F4F8F4F9F4F0895D9
:103B8000EE0FFF1F0590F491E02D0994AA1BBB1BBB
:103B900051E107C0AA1FBB1FA617B70710F0A61B4D
:103BA000B70B881F991F5A95A9F780959095BC016E
:103BB000CD01089581E090E0F8940C94DF1D13E0AE
:103BC000CBE6D3E004C0FE010E94C01D2196CC3696
:083BD000D107C9F7F894FFCFFB
:103BD800000039088000000103070F1F3F7F0080A5
:103BE800C0E0F0F8FCFE000000000000000000004B
:103BF80000000000000000000000000000000000BD
:103C080000000000000000000000000000000000AC
:103C1800000000000000000000000000000000009C
:103C2800000000000080808000000000000000000C
:103C3800000000000000008080C0C00000000000FC
:103C4800000000000000000000000000000000006C
:103C5800000000000000000000000000000000005C
:103C6800000000000000000000000000000000004C
:103C78000000000000000000000080C0E0F0F8FC38
:103C8800F8E0000000000000000000000000000054
:103C9800000000808080808000808000000000801C
:103CA8008080808000FFFFFF00000000808080800F
:103CB80000008080000080FFFF80800080800080FE
:103CC8008080800080800000000000808000008CE0
:103CD8008E84000080F8F8F88000000000000000E2
:103CE800000000000000F0F0F0F0F0F0F0F0F0F06C
:103CF800F0F0E0E0C08000E0FCFEFFFFFF7FFFFF88
:103D0800FFFFFF00000000000000000000000000AE
:103D180000FEFFC70101010183FFFF00007CFEC711
:103D28000101010183FFFFFF0038FEC78301010184
:103D380083C7FFFF000001FFFF010100FFFF07012C
:103D4800010100007FFF80000000FFFF7F0000FFEF
:103D5800FFFF000001FFFFFF01000000000000005E
:103D6800000000000000030F3F7F7FFFFFFFFFFF01
:103D7800FFFFE7C7C78F8F9FBFFFFFC3C0F0FFFFDD
:103D8800FFFFFFFCFCFCFCFCFCFCFCF8F8F0F0E09E
:103D9800C000010303030303010303000000000143
:103DA80003030303010103010000000103030303EC
:103DB80001010303000000030300000003030000E7
:103DC80000000000000103030303030100000001D9
:103DD80003010000000303010000000000000000D0
:103DE80000000000000000000080C0E0F0F9FFFFC4
:103DF800FFFFFF3F1F0F87C7F7FFFF1F1F3DFCF89F
:103E0800F8F8F87C7DFFFFFFFFFFFFFFFF7F3F0F04
:103E18000700303000000000000000000000000033
:103E280000000000000000000000FEFEFC00000092
:103E3800000000000000000000000000000000007A
:103E4800000000E0C00000000000000000000000CA
:103E580030300000000000000000000000000000FA
:103E680000000000000000C0FEFFFFFFFFFFFFFF93
:103E7800FFFF7F7F3F1F0F071F7FFFFFF8F8FFFF40
:103E8800FFFFFFFEF8E00000000100000000000056
:103E98000000FEFE000000FCFEFC0C06060EFCF80E
:103EA8000000F0F81C0E0606060CFFFFFF0000FEDF
:103EB800FE00000000FCFEFC00183C7E66E6CE8496
:103EC800000006FFFF0606FCFEFC0C0606060000C6
:103ED800FEFE0000C0F8FC4E4646464E7C78401870
:103EE8003C76E6CECC800000000000000000000018
:103EF8000000000000000000000001070F1F1F3F26
:103F08003F3F3F1F0F0300000000000000000000BB
:103F180000000F0F0000000F0F0F000000000F0F30
:103F2800000003070E0C18180C060F0F0F000001F5
:103F38000F0E0C180C0F070100040E0C180C0F07BD
:103F48000000000F0F00000F0F0F0000000000001E
:103F58000F0F00000007070C0C181C0C06060004C5
:103F68000E0C180C0F0700000000000000000000F5
:103F78000000000000000000000000000000000039
:103F88000000000000000000000000000000000029
:103F98000000000000000000000000000000000019
:103FA8000000000000000000000000000000000009
:103FB80000000000000000000000000000000000F9
:103FC80000000000000000000000000000000000E9
:103FD80000000000000000000000000000000000D9
:103FE800000000000000FFFFFFFF00E100000000EC
:103FF800000000C180810000005769666943617252
:10400800642053746172740020204645494C4F4C1B
:104018004920004D657465722031004F5447205285
:104028004459004D000000000079041B18E60458AC
:1040380004CE04CD04000000003F070F07E306EBA1
:1040480006FF060E0700000000CD0C1B18BB1C87DE
:1040580009800A970A310AAD0AE20A000B0000003B
:1040680000CD0C1B187B108709210FC70D310AAD35
:104078000AE20A000B000000005B15A215851595E1
:10408800157115821500000000E5161B18661680CC
:10409800167216C3160D0A006E616E00696E660010
:0640A8006F7666002E0099
:1070000055C000006EC000006CC000006AC00000E7
:1070100068C0000066C0000064C0000062C00000DC
:1070200060C000005EC00000FCC400005AC0000048
:1070300058C0000056C0000054C0000052C00000FC
:1070400050C000005DC000004CC000004AC00000FD
:1070500048C0000046C0000044C0000042C000001C
:1070600040C000003EC000003CC000003AC000002C
:1070700038C0000036C0000034C0000032C000003C
:1070800030C000002EC000002CC000002AC000004C
:1070900028C0000026C0000024C0000022C000005C
:1070A00020C000001EC000001CC0000011241FBE34
:1070B000CFEFDAE0DEBFCDBF11E0A0E0B1E0E2E467
:1070C000FFE702C005900D92A43BB107D9F711E08C
:1070D000A4EBB1E001C01D92AD3CB107E1F74FD385
:1070E0002EC78ECFF89410926F001092810081E02D
:1070F00085BF15BE47985D9A289A0C9400000895A4
:107100001F920F920FB60F9211242F938F939F937C
:10711000EF93FF9310928500109284008091B40148
:107120009091B501009741F001979093B50180933C
:10713000B401892B09F45D9A8091B6019091B70151
:10714000009741F001979093B7018093B601892B86
:1071500009F4289A8091BA019091BB01019690930D
:10716000BB018093BA01E0E0F0E0859194918F5FDC
:107170009F4F49F08091B8019091B9010196909389
:10718000B9018093B801FF91EF919F918F912F9159
:107190000F900FBE0F901F90189584E08093E90028
:1071A0000DC08091E8008B778093E80003C08EB318
:1071B000882351F08091E80082FFF9CF8091E800A8
:1071C00085FFEFCF8091F1000895982F83E08093A1
:1071D000E9008091E80085FD0DC08091E8008E7780
:1071E0008093E80003C08EB3882369F08091E800A3
:1071F00080FFF9CF9093F1005D9884E690E0909342
:10720000B5018093B40108954F925F926F927F927F
:107210008F929F92AF92BF92CF92DF92EF92FF92A6
:107220000F931F93CF93DF9384E08093E9008091C5
:10723000E80082FF57C2289884E690E09093B70157
:107240008093B601AADF182F853481F486EA9EE088
:107250009093B9018093B80107B600FCFDCFF9996E
:10726000FECF81E180935700E89503C0843519F47F
:1072700094DF8DE00DC28C34E1F38035D1F3843797
:1072800021F484E4A2DF80E003C2813611F489E5B1
:10729000FFC18134B1F481DF182F7FDF90E0880FC8
:1072A000991FAA2797FDA095BA2F312F330F20E001
:1072B000442737FD4095542F822B932BA42BB52BBD
:1072C000B8C1803711F483E5E3C1833549F4C0E0E8
:1072D000D1E089917ADF21E0C730D207D1F7D9C157
:1072E000863521F481E371DF80E3D2C1833731F445
:1072F00087E86BDF85E969DF8EE1CAC18536B9F4BD
:10730000E0E0F0E093E085E090935700E89507B661
:1073100000FCFDCF80935700E89507B600FCFDCF39
:10732000E058FF4FA0E7E030FA0771F7A2CF8237AD
:1073300039F4E1E0F0E089E0809357008491A8C13E
:10734000863439F4E0E0F0E089E0809357008491DE
:107350009FC18E3439F4E3E0F0E089E08093570078
:10736000849196C1813539F4E2E0F0E089E08093C0
:10737000570084918DC1823631F489E526DF80E0A3
:1073800024DF80E885C1823419F0873609F0E5C032
:107390001092B9011092B80100DF082FFEDEF82E1E
:1073A000FCDE682E8554823008F071C1902F80E099
:1073B000CF2DD0E0C82BD92B10926F00173609F0D3
:1073C0004BC081E180935700E895DD24CC24C39421
:1073D0003FC0E090BD01F090BE010091BF0110914F
:1073E000C001B6E46B16D9F4ED2DF0E0EE29FF29CB
:1073F000E4918E2FEADEDD2081F082E090E0A0E0D3
:10740000B0E0E80EF91E0A1F1B1FE092BD01F092CA
:10741000BE010093BF011093C001DC2418C0D80145
:10742000C701B695A7959795879573D5CEDE82E06F
:1074300090E0A0E0B0E0E80EF91E0A1F1B1FE092EA
:10744000BD01F092BE010093BF011093C0012197CE
:10745000209709F0BECF7DC08090BD019090BE0105
:10746000A090BF01B090C00196E4691609F05DC01C
:1074700083E0F40180935700E89507B600FCFDCF48
:1074800054C0F6E46F1661F5772031F1E090BD014C
:10749000F090BE010091BF011091C0017EDED82E98
:1074A000CC24852D90E08C299D29F7010C01409278
:1074B0005700E895112482E090E0A0E0B0E0E80EEB
:1074C000F91E0A1F1B1FE092BD01F092BE0100933E
:1074D000BF011093C00102C060DE582E742423C087
:1074E000E090BD01F090BE010091BF011091C0017C
:1074F00016950795F794E79450DE682FC70111D5CC
:107500008091BD019091BE01A091BF01B091C001D9
:107510000296A11DB11D8093BD019093BE01A09361
:10752000BF01B093C001219704C05524772444249F
:107530004394209709F0A5CF96E4691641F485E0BD
:10754000F40180935700E89507B600FCFDCF8DE06D
:107550003CDE82E080936F009CC0833471F4009124
:10756000BD011091BE0119DE90E021E0F8010C018F
:1075700020935700E89511247CCE833619F5E090CE
:10758000BD01F090BE010091BF011091C00105DE68
:10759000F701E16090E021E00C0120935700E895AD
:1075A000112482E090E0A0E0B0E0E80EF91E0A1F8E
:1075B0001B1FE092BD01F092BE010093BF0110932A
:1075C000C00157CE8D3661F4E091BD01F091BE014E
:1075D00085E080935700E89507B600FCFDCF49CEC3
:1075E000823551F4E091BD01F091BE0105911491F5
:1075F000812FEBDD802F4CC0843421F5E090BD015C
:10760000F090BE010091BF011091C0011695079541
:10761000F794E794C2DD682FC70183D48091BD0140
:107620009091BE01A091BF01B091C0010296A11D31
:10763000B11D8093BD019093BE01A093BF01B09393
:10764000C00117CE843609F5E090BD01F090BE016F
:107650000091BF011091C001D801C701B695A7954F
:107660009795879556D4B1DD82E090E0A0E0B0E038
:10767000E80EF91E0A1F1B1FE092BD01F092BE0129
:107680000093BF011093C00104C08B3111F08FE350
:107690009CDD83E08093E9009091E8008091E80010
:1076A0008E778093E80095FF04C010C08EB38823C6
:1076B000C9F08091E80080FFF9CF8091E8008E77D3
:1076C0008093E80003C08EB3882361F08091E800C6
:1076D00080FFF9CF84E08093E9008091E8008B7708
:1076E0008093E800DF91CF911F910F91FF90EF9071
:1076F000DF90CF90BF90AF909F908F907F906F90D2
:107700005F904F9008959091C501892F8F778132B6
:1077100049F58091C6018032A1F0813219F5913A84
:1077200009F58091E800877F8093E8008CE091E084
:1077300067E070E025D28091E8008B778093E800C5
:107740000895913279F48091E800877F8093E80072
:107750008CE091E067E070E077D28091E8008E776E
:107760008093E800089582E061EC42E0D1D083E0AC
:1077700061E842E1CDD084E060E842E1C9C01F93F6
:10778000209100081092000844B714BE88E10FB69B
:10779000F89480936000109260000FBE80E8E0E0F3
:1077A000F0E00FB6F89480936100E09361000FBEA3
:1077B00031E035BF92E095BF3F9A209A559A809369
:1077C00061001092610047985D9A289A1092890092
:1077D0008AEF8093880090936F0083E0809381000C
:1077E000859194918F5F9F4F11F03093BC01942F3E
:1077F00041FF19C0809109012817A9F08093000862
:10780000789480911301882339F08091BA01909186
:10781000BB0188579140C8F3F8941092000881E0AA
:10782000809313010CC090FF04C08091BC01882399
:1078300051F493FF09C080910901281729F0809124
:10784000BC01882309F04EDCD4D078941092B901A1
:107850001092B8011EEF20C0D7DC49D38091B80147
:107860009091B901815A9F4010F0109213018091BC
:10787000C1019091C20101969093C2018093C10110
:10788000292F97FF03C0512F591B252F220F28178F
:1078900010F4479801C0479A809113018823E1F6BC
:1078A0008091E00081608093E0001CDC80E090E04B
:1078B0001F910895FA01923049F0933061F09130B0
:1078C000F9F484E191E022E130E01EC086E291E02B
:1078D0002EE330E019C0882329F484E691E024E007
:1078E00030E012C0813029F488E691E02CE230E0EB
:1078F0000BC0823029F486E991E02CE130E004C02D
:1079000080E090E020E030E091838083C901089519
:107910008093E9008091EB0081608093EB001092EE
:10792000ED006093EC004093ED008091EE00881F25
:107930008827881F08958091C50188238CF403C08F
:107940008EB38823B1F08091E80082FFF9CF809157
:10795000E8008B778093E80008958EB3882349F080
:107960008091E80080FFF9CF8091E8008E778093C6
:10797000E8000895EF92FF920F931F9345D04CD0EB
:1079800008ED10E0F80180818F7780838081806826
:10799000808380818F7D808319BC1EBA1092C301C1
:1079A00080EEE82EF12CF70180818B7F8083F80137
:1079B00080818160808380E060E042E0A9DFE1EEC9
:1079C000F0E080818E7F8083E2EEF0E08081816054
:1079D0008083808188608083F70180818E7F8083AF
:1079E000F8018081806180831F910F91FF90EF905B
:1079F0000895E7EDF0E08081816080838AE482BFB2
:107A000081E08093C401B6CFE8EDF0E080818E7F05
:107A100080831092E20008951092DA001092E10043
:107A200008951F920F920FB60F9211242F933F9338
:107A30004F935F936F937F938F939F93AF93BF9376
:107A4000EF93FF938091DA0080FF1AC08091D800F5
:107A500080FF16C08091DA008E7F8093DA008091DB
:107A6000D90080FF0AC019BC82E089BD09B400FEBC
:107A7000FDCF81E08EBB3AD203C019BC1EBA36D20C
:107A80008091E10080FF17C08091E20080FF13C069
:107A90008091E2008E7F8093E2008091E20080611D
:107AA0008093E2008091D80080628093D80019BC56
:107AB00085E08EBB1BD28091E10084FF2BC08091BA
:107AC000E20084FF27C019BC82E089BD09B400FE32
:107AD000FDCF8091D8008F7D8093D8008091E10008
:107AE0008F7E8093E1008091E2008F7E8093E200A0
:107AF0008091E20081608093E2008091C30188233D
:107B000031F48091E30087FD02C081E001C084E090
:107B10008EBBECD18091E10083FF21C08091E20017
:107B200083FF1DC08091E100877F8093E10082E0A8
:107B30008EBB1092C3018091E1008E7F8093E100A3
:107B40008091E2008E7F8093E2008091E20080616C
:107B50008093E20080E060E042E0DADEC7D1FF918E
:107B6000EF91BF91AF919F918F917F916F915F91B5
:107B70004F913F912F910F900FBE0F901F9018952E
:107B80009C014091CB015091CC014617570718F446
:107B9000F90190E044C06115710511F0AB01F8CF17
:107BA0008091E8008E778093E80040E050E0F0CFCD
:107BB0008EB3882309F444C0853009F443C0809112
:107BC000E80083FF02C081E008958091E80082FD13
:107BD00031C08091E80080FF22C08091F300909135
:107BE000F200782F60E0292F30E0262B372B07C0DA
:107BF00081918093F100415050402F5F3F4F4115DC
:107C0000510519F02830310598F390E028303105FE
:107C100009F491E08091E8008E778093E8004115A7
:107C2000510531F6992321F605C08EB3882341F022
:107C3000853041F08091E80082FFF7CF80E0089521
:107C400082E0089583E008959C016115710529F48F
:107C50008091E8008B778093E800F90126C08EB30D
:107C6000882391F1853091F18091E80083FF02C073
:107C700081E008958091E80082FFF1CF06C08091F5
:107C8000F10081936150704059F02091F300809190
:107C9000F200322F20E090E0822B932B892B79F792
:107CA0008091E8008B778093E80061157105B9F643
:107CB00005C08EB3882341F0853041F08091E80003
:107CC00080FFF7CF80E0089582E0089583E0089573
:107CD0000F931F93DF93CF9300D0CDB7DEB7E5ECC2
:107CE000F1E08091F100819381E0ED3CF807C9F764
:107CF0000ADD8091E80083FFE4C08091C501909186
:107D0000C601953009F46DC0963040F4913081F190
:107D1000913070F0933009F0D4C02AC0983009F443
:107D2000A3C0993009F4B2C0963009F0CAC07CC033
:107D3000803809F4C6C0823809F0C3C08091C901F7
:107D400087708093E9008091EB001092E900209108
:107D5000E800277F2093E80090E025E0969587953E
:107D60002A95E1F781708093F1001092F10087C0AD
:107D7000882319F0823009F0A4C08F71823009F095
:107D8000A0C08091C701882331F52091C9012770D7
:107D900009F497C02093E9008091EB0080FF1BC09D
:107DA000933021F48091EB00806213C08091EB004E
:107DB00080618093EB0081E090E002C0880F991F02
:107DC0002A95E2F78093EA001092EA008091EB0096
:107DD00088608093EB001092E9008091E800877F33
:107DE00051C0882309F06DC01091C7011F770FB7EC
:107DF000F8948091E800877F8093E8009CDD809173
:107E0000E80080FFFCCF8091E3008078812B809395
:107E1000E30080688093E300112311F482E001C045
:107E200083E08EBB0FBF4DC08058823008F049C040
:107E30008091C7019091C8016091C901AE014F5F67
:107E40005F4F38DDBC01009709F43BC08091E8002A
:107E5000877F8093E80089819A8192DE8091E80093
:107E60008B778093E8002DC0803859F58091E80029
:107E7000877F8093E8008091C3018093F100809117
:107E8000E8008E778093E80056DD1BC08823C9F494
:107E90009091C7019230A8F48091E800877F809389
:107EA000E8009093C30147DD8091C301882331F43A
:107EB0008091E30087FD02C081E001C084E08EBBB9
:107EC00052DC8091E80083FF0AC08091EB00806261
:107ED0008093EB008091E800877F8093E8000F900B
:107EE0000F90CF91DF911F910F91089508951F93E7
:107EF0008EB3882361F01091E9001092E90080911F
:107F0000E80083FF01C0E4DE17701093E9001F91C1
:107F10000895F999FECF92BD81BDF89A992780B551
:107F20000895262FF999FECF1FBA92BD81BD20BDBD
:107F30000FB6F894FA9AF99A0FBE01960895F8943C
:027F4000FFCF71
:107F42004341544552494E41007700080000000069
:107F52000000080112011001020000088D0E00ABA2
:107F620001000201000109023E0002010080320903
:107F72000400000102020100052400100104240291
:107F8200040524060001070582030800FF09040115
:107F920000020A0000000705040210000107058321
:107FA20002100001040309042C034C0069006E0056
:107FB2006B0049007400200053006D0061007200E4
:107FC20074002000370036003800380020004400DA
:107FD20075006F0000001C034D006500640069001D
:107FE2006100540065006B0020004C0061006200DB
:047FF2007300000018
:040000030000700089
:00000001FF
